S022000041546D656761333238505F696E436F6E6172645F52656D6F74652E737265638E
S11300000C943E000C943A070C946B070C949407E0
S11300100C94C5070C94F6070C949C010C945B009B
S11300200C945B000C945B000C945B000C94C20871
S11300300C945B000C945B000C945B000C945B00D0
S11300400C945B000C945B000C945B000C945B00C0
S11300500C945B000C945B000C945B000C945B00B0
S11300600C945B000C945B00446F6E6500506F77DA
S11300706572696E67206F6E2E2E2E0011241FBECE
S1130080CFEFD8E0DEBFCDBF11E0A0E0B1E0E0E209
S1130090F5E102C005900D92A030B107D9F722E036
S11300A0A0E0B1E001C01D92A33FB207E1F70E94B6
S11300B028090C948E0A0C9400008FEA8093640043
S11300C0089510926400089580930001089580912A
S11300D000010895249884B18C6284B92A9A8CB55D
S11300E082658CBD08958EBD0DB407FEFDCF8EB51F
S11300F0089570938900609388001092800087703F
S113010088608093810082E080936F0078940895E2
S11301108130E9F018F0823099F10895442359F0C0
S113012025B181E090E002C0880F991F6A95E2F73B
S1130130822B85B9089525B181E090E002C0880F33
S1130140991F6A95E2F78095822385B9089544231F
S113015059F028B181E090E002C0880F991F6A9598
S1130160E2F7822B88B9089528B181E090E002C0BB
S1130170880F991F6A95E2F78095822388B90895BC
S1130180442359F02BB181E090E002C0880F991FFD
S11301906A95E2F7822B8BB908952BB181E090E048
S11301A002C0880F991F6A95E2F7809582238BB964
S11301B008958130E9F018F0823099F108954423CC
S11301C059F024B181E090E002C0880F991F6A952C
S11301D0E2F7822B84B9089524B181E090E002C053
S11301E0880F991F6A95E2F78095822384B9089550
S11301F0442359F027B181E090E002C0880F991F91
S11302006A95E2F7822B87B9089527B181E090E0DF
S113021002C0880F991F6A95E2F78095822387B9F7
S11302200895442359F02AB181E090E002C0880F78
S1130230991F6A95E2F7822B8AB908952AB181E061
S113024090E002C0880F991F6A95E2F78095822397
S11302508AB90895E8E6F0E0908121E030E0082EC4
S113026002C0220F331F0A94E2F7292B2083813026
S113027081F018F08230C9F00895EBE6F0E0808157
S113028050E002C0440F551F6A95E2F7482B4083A3
S11302900895ECE6F0E0808150E002C0440F551F61
S11302A06A95E2F7482B40830895EDE6F0E08081FB
S11302B050E002C0440F551F6A95E2F7482B408373
S11302C00895E0ECF0E0908195FFFDCF8093C600A7
S11302D0089520910301309104014091050150914A
S11302E006016091070170910801809109019091C4
S11302F00A01A1E00E94820A2093030130930401C1
S1130300409305015093060160930701709308011F
S11303108093090190930A01809101019091020157
S1130320892B49F0809101019091020101979093EA
S113033002018093010108951F920F920FB60F924C
S113034011248F9384B78E7F84BF8F910F900FBE3B
S11303500F901F9018950F93ECE4F1E0A4E5B1E041
S1130360219308E00E94660AEA17FB07C9F78CE4A8
S113037091E00F9108958A3010F0895C0895805DB2
S113038008951F93CF93DF93182F82958F700E9447
S1130390BB01C4E5D1E08883812F8F70809359011C
S11303A00E94BB0189831A82CE01DF91CF911F91F4
S11303B00895CF93DF93EC018DE00E9461018AE000
S11303C00E946101FE018491882349F0FE01849119
S11303D00E9461012196FE0184918111F7CFDF9182
S11303E0CF910895CF93DF93EC018881882331F076
S11303F021960E94610189918111FBCFDF91CF91F8
S11304000895FF920F931F93CF93DF93F62E062F39
S113041010E001501109080F191F80E30E946101C7
S113042088E70E946101FF2081F0E80121968FEFA7
S11304308F0D081B11098A9180934B010E94C10101
S11304400E94F201C017D107B1F7EF2DF0E0E55F8C
S1130450FE4F12828BE091E0DF91CF911F910F91BB
S1130460FF9008950F930E94AB01602F0E94010238
S11304700E94F2010F910895419880E50E94730053
S113048083E70E947300419A0895862F41980E9441
S11304907300419A0895AF92BF92CF92DF92EF9288
S11304A0FF920F931F93CF93DF93862FA42E41982F
S11304B00E947300AA2021F1D0E0C0E0B12CC12C2D
S11304C0D12CE12CF12C00E010E080E00E947300BC
S11304D02C2F282B3B2D4C2D5D2D6E2D7F2D802F09
S11304E0912F08E00E944B0AC22FB32EC42ED52EA2
S11304F0E62EF72E082F192FDF5FDA11E6CF08C09A
S1130500C0E0B12CC12CD12CE12CF12C00E010E086
S1130510419A2C2F3B2D4C2D5D2D6E2D7F2D802F40
S1130520912F08E00E94660ADF91CF911F910F91ED
S1130530FF90EF90DF90CF90BF90AF90089541E08F
S113054067E10E944B02822F8072089541E067E0C8
S11305500E944B02822F8072089541E067E00E945E
S11305604B02822F807108959F92AF92BF92CF92D7
S1130570DF92EF92FF920F931F93CF93DF93C22FDB
S1130580D32FB42EA52E4198862F80620E9473002B
S1130590982ECC20D1F0D12C8E2D0E9473002E2DBC
S11305A03F2D402F512F6C2F7D2F8B2D9A2D08E03E
S11305B00E94660AE22EF32E042F152FC62FD72F82
S11305C0B82EA92ED394DC10E7CF419A892DDF9160
S11305D0CF911F910F91FF90EF90DF90CF90BF903C
S11305E0AF909F900895CF92EF92FF920F931F9335
S11305F0CF93DF93EC01E62E41E060E00E944B02D2
S11306002D7FEE0CE22AEB82CC24C394F12C00E083
S113061010E020E030E040E050E060E0CE010E94D5
S1130620B402DF91CF911F910F91FF90EF90CF9083
S11306300895CF92EF92FF920F931F93CF93DF937E
S1130640EC01E62E41E060E00E944B022B8301E0C6
S113065030E040E050E060E070E080E090E00E9434
S113066032028B818E7FE82AEB82CC24C394F12C56
S113067000E010E020E030E040E050E060E0CE0137
S11306800E94B40241E060E0CE010E944B02DF917F
S1130690CF911F910F91FF90EF90CF900895CF923B
S11306A0EF92FF920F931F93CF93DF93EC01E62E0B
S11306B041E06DE10E944B022D7FEE0CE22AEB82B9
S11306C0CC24C394F12C00E010E020E030E040E0C2
S11306D050E06DE1CE010E94B402DF91CF911F91F1
S11306E00F91FF90EF90CF900895CF92EF92FF92E9
S11306F00F931F93CF93DF93EC01E62E41E06DE15E
S11307000E944B022B7FEE0CEE0CE22AEB82CC24EF
S1130710C394F12C00E010E020E030E040E050E031
S11307206DE1CE010E94B402DF91CF911F910F9130
S1130730FF90EF90CF900895AF92BF92CF92EF9237
S1130740FF920F931F93CF93DF93663048F5C42F26
S1130750D62F5C0141E06CE10E944B0281E090E005
S11307600D2E02C0880F991F0A94E2F78095822308
S11307704C2F50E002C0440F551FDA95E2F7E82EE3
S1130780E42AF501E382CC24C394F12C00E010E0C8
S113079020E030E040E050E06CE1C5010E94B4028A
S11307A0DF91CF911F910F91FF90EF90CF90BF9069
S11307B0AF900895CF92EF92FF920F931F93CC24A2
S11307C0C3946894EE24E5F8F12C00E010E020E0F6
S11307D030E040E050E067E00E94B4021F910F91C6
S11307E0FF90EF90CF900895CF92EF92FF920F93E6
S11307F01F93CC24C3946894EE24E4F8F12C00E015
S113080010E020E030E040E050E067E00E94B402F5
S11308101F910F91FF90EF90CF900895CF92EF9298
S1130820FF920F931F93CF93DF93EC01E62E41E0E9
S113083066E00E944B02277FEE0CEE0CEE0CE22ADF
S1130840EB82CC24C394F12C00E010E020E030E0F3
S113085040E050E066E0CE010E94B402DF91CF9107
S11308601F910F91FF90EF90CF900895AF92BF9298
S1130870CF92EF92FF920F931F93CF93DF931F9228
S1130880CDB7DEB75C0169836FEF0E9445028093A8
S11308905A0180FD09C0419880EA0E947300898151
S11308A00E947300419A12C084FF10C0CC24C394E8
S11308B06894EE24E4F8F12C00E010E020E030E04D
S11308C040E050E067E0C5010E94B4020F90DF9160
S11308D0CF911F910F91FF90EF90CF90BF90AF9069
S11308E00895CF92EF92FF920F931F930F2EF5E08E
S11308F0CF2EF02DE02EF12E022F132F242F352F83
S1130900462F572F60E10E94B4021F910F91FF9070
S1130910EF90CF900895CF92EF92FF920F931F9391
S11309200F2EF5E0CF2EF02DE02EF12E022F132FF7
S1130930242F352F462F572F6AE00E94B4021F91AF
S11309400F91FF90EF90CF900895CF92EF92FF9286
S11309500F931F93CF93DF93EC01399A389A409AFF
S1130960579A1A8205EB1AEB2AEB3AEB4AEB50E062
S113097060E070E00E9471042AEB3AEB4AEB50E02D
S113098060E070E0CE010E948B04CC24C394E12C7F
S1130990F12C00E010E020E030E040E050E064E0C2
S11309A0CE010E94B40261E0CE010E940E046F8168
S11309B0CE010E9419038885882381F0CE010E940C
S11309C03C0261E0CE010E94750341E060E0CE018B
S11309D00E949C0361E0CE010E944F0361E0CE01BE
S11309E00E94F302DF91CF911F910F91FF90EF903E
S11309F0CF9008953FEF50E772E03150504070407F
S1130A00E1F700C00000FC01278321E02087608318
S1130A1041830E94A504089561EE0E944502089551
S1130A20089510926E0180E195E090935C018093AB
S1130A305B010895FC017787668770935E0160937C
S1130A405D0121E0248F0895CF93DF93EC011BA275
S1130A501CA20E946F08CE010E944F088C8D811148
S1130A6004C0809168018823C9F0809169018823BA
S1130A7061F081E00E946400E0915D01F0915E010B
S1130A80309761F08EA1099509C081E00E9464004D
S1130A90EE85FF85309711F08EA10995DF91CF91F6
S1130AA00895CF93DF9390916E019923C1F0D82FCD
S1130AB0C0E0EC2FF0E0EE0FFF1FE159FE4F019074
S1130AC0F081E02D91A59D1305C0309719F0CF0159
S1130AD00E942405CF5F90916E01C91750F3DF91F6
S1130AE0CF91089580936901809368018093670191
S1130AF08093660180936501089583B1EAE6F1E08D
S1130B00808386B1818389B182830895FC0180A5A5
S1130B10813049F018F0823059F00EC080916A019A
S1130B2080936D0109C080916B0180936D0104C0B5
S1130B3080916C0180936D01828D81A320916D0160
S1130B4030E007A002C0359527950A94E2F721709A
S1130B50228F0895EF92FF920F931F93CF93DF9309
S1130B60EC01F62EE42E89011F861E861B8A1A8A42
S1130B70198A188A1D8A1C8A1F8A1E8A198E188E41
S1130B800E943008EFA2F8A640E06E2D8F2D0E943F
S1130B90D90041E06FA188A50E94880041E06E2D34
S1130BA08F2D0E942A0188A5813041F018F08230EF
S1130BB049F00BC083B180936D0107C086B1809367
S1130BC06D0103C089B180936D0180916E01E82F9E
S1130BD0F0E0EE0FFF1FE159FE4F118300838EA357
S1130BE08F5F80936E01CE010E947D05CE010E942D
S1130BF086051F8ECE010E94BF0889A7DF91CF9181
S1130C001F910F91FF90EF900895CF93DF93EC0124
S1130C100E9486058A8D811120C089A1882309F448
S1130C2078C08BA1811108C029E137E040E06CEB6A
S1130C3072E0CE010E94410881E08AA38BA188233F
S1130C4041F068E572E0CE010E945C0881E08CA36B
S1130C501BA28A8D882309F45CC089A1811159C023
S1130C608CA1811106C0CE010E9454089DA78CA7B7
S1130C7005C0CE010E9467089DA78CA7CE010E94E3
S1130C806F08CE010E944F081AA28CA59DA50B9750
S1130C908D34924098F58CA1811117C08DA18111DA
S1130CA02FC08F8D882359F021E535E040E064E6BC
S1130CB070E0CE010E94410881E08BA303C0CE0105
S1130CC00E9424058CA1882309F18091690188235D
S1130CD061F081E00E946400E0916301F09164019D
S1130CE0309761F08EA1099509C081E00E946400EB
S1130CF0EA89FB89309711F08EA109958DA18111A4
S1130D001DA28CA1882329F01CA203C08DA18111EE
S1130D10F7CFDF91CF910895CF9380916E0188230F
S1130D2091F0C0E0EC2FF0E0EE0FFF1FE159FE4F11
S1130D3080819181009711F00E940506CF5F809118
S1130D406E01C81778F3CF910895CF93DF93EC0128
S1130D5018A21BA21CA28DA1882389F1CE010E9496
S1130D607D05CE010E9486058A8D811128C08E8D55
S1130D70811104C080916501882309F129E137E0DC
S1130D8040E066E470E0CE010E9441088091690170
S1130D90882361F081E00E946400E0915F01F0919A
S1130DA06001309761F08EA1099509C081E00E942D
S1130DB06400EC89FD89309711F08EA109958AA110
S1130DC08823A1F1CE010E947D05CE010E948605F3
S1130DD08A8D81112BC08D8D811104C08091660193
S1130DE0882321F11AA281E08DA329E137E040E0B4
S1130DF062E370E0CE010E9441088091690188237A
S1130E0061F081E00E946400E0916101F09162016F
S1130E10309761F08EA1099509C081E00E946400B9
S1130E20E889F989309711F08EA10995DF91CF9166
S1130E300895CF93DF9390916E019923C1F0D82F39
S1130E40C0E0EC2FF0E0EE0FFF1FE159FE4F0190E0
S1130E50F081E02D91A59D1305C0309719F0CF01C5
S1130E600E94A506CF5F90916E01C91750F3DF91E0
S1130E70CF9108951F920F920FB60F9211242F93C2
S1130E803F934F935F936F937F938F939F93AF930E
S1130E90BF93EF93FF9383B1EAE6F1E0808386B1D9
S1130EA0818389B182830E94610080E00E94640092
S1130EB00E948C06FF91EF91BF91AF919F918F910A
S1130EC07F916F915F914F913F912F910F900FBE42
S1130ED00F901F9018951F920F920FB60F92112426
S1130EE02F933F934F935F936F937F938F939F932E
S1130EF0AF93BF93EF93FF930E94610080E00E9441
S1130F0064000E948C06FF91EF91BF91AF919F9175
S1130F108F917F916F915F914F913F912F910F909E
S1130F200FBE0F901F9018951F920F920FB60F923D
S1130F3011242F933F934F935F936F937F938F93DA
S1130F409F93AF93BF93EF93FF9383B1EAE6F1E0EE
S1130F50808386B1818389B182830E94610080E0AD
S1130F600E9464000E948C06FF91EF91BF91AF91A3
S1130F709F918F917F916F915F914F913F912F91AD
S1130F800F900FBE0F901F9018951F920F920FB6DF
S1130F900F9211242F933F934F935F936F937F93FB
S1130FA08F939F93AF93BF93EF93FF9383B1EAE63D
S1130FB0F1E0808386B1818389B182830E946100DC
S1130FC080E00E9464000E948C06FF91EF91BF9123
S1130FD0AF919F918F917F916F915F914F913F91CD
S1130FE02F910F900FBE0F901F9018951F920F9284
S1130FF00FB60F9211242F933F934F935F936F93E8
S11310007F938F939F93AF93BF93EF93FF9383B19A
S1131010EAE6F1E0808386B1818389B182830E940C
S1131020610080E00E9464000E948C06FF91EF91B1
S1131030BF91AF919F918F917F916F915F914F91EC
S11310403F912F910F900FBE0F901F90189560E461
S11310507FE181E00E94790081E080937B01089523
S1131060DC0190917B01E92FF0E0EE0FFF1FEC57BC
S1131070FE4FB183A08315969C939F5F90937B0151
S11310800895FC01718360837383628335872487A9
S113109081E08387448380E00E9464000895FC011A
S11310A01386118210820895FC018281938120812C
S11310B03181821B930B0895FC017783668381E061
S11310C082877187608780E00E9464000895FC0134
S11310D08085918526813781821B930B0895FC01BD
S11310E01782168212860895CF93DF93EC018B85C5
S11310F08823E1F088819981009729F001979983E9
S11311008883892B99F48C81813029F48A819B818D
S11311109983888305C0811103C01B8619821882B4
S1131120EC85FD85309711F08D8109958A8588239A
S113113051F08E819F81009729F001979F838E83C0
S1131140892B09F41A86DF91CF910895CF9380916A
S11311507B01882391F0C0E0EC2FF0E0EE0FFF1F3D
S1131160EC57FE4F80819181009711F00E94740822
S1131170CF5F80917B01C81778F3CF910895FC016C
S1131180858108951F920F920FB60F9211242F9309
S11311903F934F935F936F937F938F939F93AF93FB
S11311A0BF93EF93FF930E94690120917C013091DA
S11311B07D0140917E0150917F0160918001709189
S11311C081018091820190918301A1E00E94820AB1
S11311D020937C0130937D0140937E0150937F01E5
S11311E060938001709381018093820190938301C5
S11311F00E94A608FF91EF91BF91AF919F918F91AB
S11312007F916F915F914F913F912F910F900FBEFE
S11312100F901F90189591E09093F1028093F20241
S113122080E00E946400089581E08093F0025A985F
S11312300E946400089568EE73E082E00E947900E1
S11312400E946A0041E062E082E00E94D9000895B1
S1131250CF93DF93CDB7DEB729970FB6F894DEBFEF
S11312600FBECDBF0E941B092FEF84E39CE02150E9
S113127080409040E1F700C000008DE690E00E94BD
S1131280D90178941092F00220E041E061E0CE01AF
S113129001960E94FA040E94270882EE92E00E94BE
S11312A0300884ED92E00E94300824E139E040E007
S11312B064E670E082EE92E00E9441080E9411050B
S11312C026EA32E040E060E0C9010E94AA0528E76E
S11312D032E046E060E0C9010E94AA052AE432E057
S11312E041E060E0C9010E94AA052CE132E047E038
S11312F060E0C9010E94AA052EEE31E046E062E0FA
S1131300C9010E94AA0520EC31E047E062E0C9016E
S11313100E94AA056BE079E086EA92E00E941A0531
S113132081E00E94720588E690E00E94D90181E084
S11313300E946400CE0101960E94AD02882321F030
S1131340CE0101960E94F403CE0101960E949F02F1
S1131350882321F0CE0101960E940C05CE0101964E
S11313600E94A602882321F0CE0101960E94DA038E
S11313708091F102882309F467C01092F1028091F0
S1131380F202843040F46091F2026F5FCE01019664
S11313900E9436040FC08091F202853031F461ED71
S11313A0CE0101960E94360405C060EDCE0101967F
S11313B00E9436041092F00224E139E040E062E336
S11313C070E084ED92E00E944108CE0101960E94F3
S11313D0A602803209F457C08091F002811153C0F3
S11313E0F4CF5A9ACE0101960E94DA0324E139E03F
S11313F040E068EC70E082EE92E00E94410884EDE7
S113140092E00E944F0802C01092F002CE010196B1
S11314100E94AD02882321F0CE0101960E94F403BC
S1131420CE0101960E949F02882321F0CE010196ED
S11314300E940C05CE0101960E94A602882321F089
S1131440CE0101960E94DA030E946700882309F402
S11314508FCF83B7817F846083BF83B7816083BF6D
S113146078940E945D00409883B7816083BF88951B
S113147083B78E7F83BF409A8FE39CE90197F1F78E
S113148000C0000075CFCE0101960E94A6028032F2
S113149009F0BACFA6CF0F93083090F0982F872F7A
S11314A0762F652F542F432F322F22270850F4CF45
S11314B0220F331F441F551F661F771F881F991F54
S11314C00A95B2F70F91089597FB10F81694000847
S11314D00F93083098F00850232F342F452F562FA0
S11314E0672F782F892F902DF4CF059497958795A2
S11314F07795679557954795379527950A95AAF750
S11315000F9108950024A7FD00942A0F301D401D5B
S1131510501D601D701D801D901D0895F894FFCF0F
S9030000FC
