:100000000C943E000C94F6060C9427070C945007B1
:100010000C9481070C94B2070C949C010C945B0027
:100020000C945B000C945B000C945B000C947E08B9
:100030000C945B000C945B000C945B000C945B00D4
:100040000C945B000C945B000C945B000C945B00C4
:100050000C945B000C945B000C945B000C945B00B4
:100060000C945B000C945B00446F6E6500506F77DE
:100070006572696E67206F6E2E2E2E0011241FBED2
:10008000CFEFD8E0DEBFCDBF11E0A0E0B1E0E6ECFD
:10009000F4E102C005900D92A030B107D9F722E03B
:1000A000A0E0B1E001C01D92A23BB207E1F70E94BF
:1000B000E4080C94610A0C9400008FEA80936400B9
:1000C000089510926400089580930001089580912E
:1000D00000010895249884B18C6284B92A9A8CB561
:1000E00082658CBD08958EBD0DB407FEFDCF8EB523
:1000F0000895709389006093880010928000877043
:1001000088608093810082E080936F0078940895E6
:100110008130E9F018F0823099F10895442359F0C4
:1001200025B181E090E002C0880F991F6A95E2F73F
:10013000822B85B9089525B181E090E002C0880F37
:10014000991F6A95E2F78095822385B90895442323
:1001500059F028B181E090E002C0880F991F6A959C
:10016000E2F7822B88B9089528B181E090E002C0BF
:10017000880F991F6A95E2F78095822388B90895C0
:10018000442359F02BB181E090E002C0880F991F01
:100190006A95E2F7822B8BB908952BB181E090E04C
:1001A00002C0880F991F6A95E2F7809582238BB968
:1001B00008958130E9F018F0823099F108954423D0
:1001C00059F024B181E090E002C0880F991F6A9530
:1001D000E2F7822B84B9089524B181E090E002C057
:1001E000880F991F6A95E2F78095822384B9089554
:1001F000442359F027B181E090E002C0880F991F95
:100200006A95E2F7822B87B9089527B181E090E0E3
:1002100002C0880F991F6A95E2F78095822387B9FB
:100220000895442359F02AB181E090E002C0880F7C
:10023000991F6A95E2F7822B8AB908952AB181E065
:1002400090E002C0880F991F6A95E2F7809582239B
:100250008AB90895E8E6F0E0908121E030E0082EC8
:1002600002C0220F331F0A94E2F7292B208381302A
:1002700081F018F08230C9F00895EBE6F0E080815B
:1002800050E002C0440F551F6A95E2F7482B4083A7
:100290000895ECE6F0E0808150E002C0440F551F65
:1002A0006A95E2F7482B40830895EDE6F0E08081FF
:1002B00050E002C0440F551F6A95E2F7482B408377
:1002C0000895E0ECF0E0908195FFFDCF8093C600AB
:1002D000089520910301309104014091050150914E
:1002E00006016091070170910801809109019091C8
:1002F0000A01A1E00E94550A2093030130930401F2
:100300004093050150930601609307017093080123
:100310008093090190930A0180910101909102015B
:10032000892B49F0809101019091020101979093EE
:1003300002018093010108951F920F920FB60F9250
:1003400011248F9384B78E7F84BF8F910F900FBE3F
:100350000F901F901895CF93DF93EC018DE00E94D2
:1003600061018AE00E946101FE018491882349F0C5
:10037000FE0184910E9461012196FE018491811108
:10038000F7CFDF91CF910895419880E50E947300E7
:1003900083E70E947300419A0895862F41980E9436
:1003A0007300419A0895AF92BF92CF92DF92EF927D
:1003B000FF920F931F93CF93DF93862FA42E419824
:1003C0000E947300AA2021F1D0E0C0E0B12CC12C22
:1003D000D12CE12CF12C00E010E080E00E947300B1
:1003E0002C2F282B3B2D4C2D5D2D6E2D7F2D802FFE
:1003F000912F08E00E941E0AC22FB32EC42ED52EC4
:10040000E62EF72E082F192FDF5FDA11E6CF08C08E
:10041000C0E0B12CC12CD12CE12CF12C00E010E07B
:10042000419A2C2F3B2D4C2D5D2D6E2D7F2D802F35
:10043000912F08E00E94390ADF91CF911F910F910F
:10044000FF90EF90DF90CF90BF90AF90089541E084
:1004500067E10E94D301822F8072089541E067E036
:100460000E94D301822F8072089541E067E00E94CC
:10047000D301822F807108959F92AF92BF92CF9245
:10048000DF92EF92FF920F931F93CF93DF93C22FD0
:10049000D32FB42EA52E4198862F80620E94730020
:1004A000982ECC20D1F0D12C8E2D0E9473002E2DB1
:1004B0003F2D402F512F6C2F7D2F8B2D9A2D08E033
:1004C0000E94390AE22EF32E042F152FC62FD72FA4
:1004D000B82EA92ED394DC10E7CF419A892DDF9155
:1004E000CF911F910F91FF90EF90DF90CF90BF9031
:1004F000AF909F900895CF92EF92FF920F931F932A
:10050000CF93DF93EC01E62E41E060E00E94D3013F
:100510002D7FEE0CE22AEB82CC24C394F12C00E078
:1005200010E020E030E040E050E060E0CE010E94CA
:100530003C02DF91CF911F910F91FF90EF90CF90F0
:100540000895CF92DF92EF92FF920F931F93CF9374
:10055000DF93EC0141E060E00E94D301DD24D394FD
:10056000E22EED24EB82CC24C394F12C00E010E0C9
:1005700020E030E040E050E060E0CE010E943C022C
:1005800041E060E0CE010E94D301EB80ED24EB82DC
:1005900020E030E040E050E060E0CE010E943C020C
:1005A000DF91CF911F910F91FF90EF90DF90CF904F
:1005B0000895CF92EF92FF920F931F93CF93DF9303
:1005C000EC01162F41E060E00E94D3012E7FE22E65
:1005D000E12AEB82CC24C394F12C00E010E020E06F
:1005E00030E040E050E060E0CE010E943C0241E09B
:1005F00060E0CE010E94D301DF91CF911F910F9156
:10060000FF90EF90CF900895CF92EF92FF920F93CB
:100610001F93CF93DF93EC01E62E41E06DE10E9442
:10062000D3012D7FEE0CE22AEB82CC24C394F12C73
:1006300000E010E020E030E040E050E06DE1CE016D
:100640000E943C02DF91CF911F910F91FF90EF909C
:10065000CF900895CF92EF92FF920F931F93CF9375
:10066000DF93EC01E62E41E06DE10E94D3012B7F88
:10067000EE0CEE0CE22AEB82CC24C394F12C00E0C9
:1006800010E020E030E040E050E06DE1CE010E945B
:100690003C02DF91CF911F910F91FF90EF90CF908F
:1006A0000895AF92BF92CF92EF92FF920F931F9354
:1006B000CF93DF93663048F5C42FD62F5C0141E01D
:1006C0006CE10E94D30181E090E00D2E02C0880F02
:1006D000991F0A94E2F7809582234C2F50E002C0C4
:1006E000440F551FDA95E2F7E82EE42AF501E3827C
:1006F000CC24C394F12C00E010E020E030E040E096
:1007000050E06CE1C5010E943C02DF91CF911F9146
:100710000F91FF90EF90CF90BF90AF900895CF9240
:10072000EF92FF920F931F93CC24C3946894EE240E
:10073000E5F8F12C00E010E020E030E040E050E08F
:1007400067E00E943C021F910F91FF90EF90CF90C5
:100750000895CF92EF92FF920F931F93CC24C394EE
:100760006894EE24E4F8F12C00E010E020E030E0A2
:1007700040E050E067E00E943C021F910F91FF9023
:10078000EF90CF900895CF92EF92FF920F931F9327
:10079000CF93DF93EC01E62E41E066E00E94D301A7
:1007A000277FEE0CEE0CEE0CE22AEB82CC24C394F5
:1007B000F12C00E010E020E030E040E050E066E0A6
:1007C000CE010E943C02DF91CF911F910F91FF90CB
:1007D000EF90CF900895CF92EF92FF920F931F93D7
:1007E000CF93DF93EC01399A389A409A579A1A823C
:1007F0000E94A102CC24C394E12CF12C00E010E073
:1008000020E030E040E050E064E0CE010E943C0295
:1008100061E0CE010E94C3036F81CE010E94D90224
:100820008885882381F041E060E0CE010E94510379
:10083000CE010E94C40161E0CE010E942A0361E062
:10084000CE010E94040361E0CE010E947B02DF9191
:10085000CF911F910F91FF90EF90CF9008953FEFB0
:1008600050E772E0315050407040E1F700C00000A6
:10087000FC01278321E02087608341830E94EB03F2
:100880000895AF92BF92CF92EF92FF920F931F9372
:10089000CF93DF931F92CDB7DEB75C0169836FEF13
:1008A0000E94CD0180930B0180FD09C0419880EA30
:1008B0000E94730089810E947300419A12C084FFD4
:1008C00010C0CC24C3946894EE24E4F8F12C00E02A
:1008D00010E020E030E040E050E067E0C5010E9419
:1008E0003C020F90DF91CF911F910F91FF90EF90FD
:1008F000CF90BF90AF900895CF92EF92FF920F9359
:100900001F930F2EF5E0CF2EF02DE02EF12E022FAB
:10091000132F242F352F462F572F60E10E943C02C2
:100920001F910F91FF90EF90CF900895CF92EF928B
:10093000FF920F931F93F22F242F462F6AE06E0D24
:100940000F2EF5E0CF2EF02DE02EF12E0F2F132FCE
:10095000352F572F0E943C021F910F91FF90EF906F
:10096000CF90089561EE0E94CD01089508951092F0
:10097000210186EB94E090930D0180930C01089582
:10098000FC017787668770930F0160930E0121E069
:10099000248F0895CF93DF93EC011DA21EA20E9425
:1009A0002B08CE010E940B088C8D811104C0809110
:1009B0001B018823C9F080911C01882361F081E02C
:1009C0000E946400E0910E01F0910F01309761F0F8
:1009D00088A5099509C081E00E946400EE85FF8525
:1009E000309711F088A50995DF91CF910895CF93A5
:1009F000DF93909121019923C1F0D82FC0E0EC2F13
:100A0000F0E0EE0FFF1FEE5DFE4F0190F081E02D54
:100A100093A59D1305C0309719F0CF010E94CA0419
:100A2000CF5F90912101C91750F3DF91CF910895C5
:100A300080931C0180931B0180931A0180931901FC
:100A4000809316018093180180931701089583B154
:100A5000EDE1F1E0808386B1818389B182830895DD
:100A6000FC0182A5813049F018F0823059F00EC0A7
:100A700080911D018093200109C080911E01809307
:100A8000200104C080911F0180932001828D83A3E7
:100A90002091200130E001A402C0359527950A94E9
:100AA000E2F72170228F0895EF92FF920F931F9328
:100AB000CF93DF93EC01F62EE42E89011F861E866C
:100AC0001B8A1A8A198A188A1D8A1C8A1F8A1E8AFA
:100AD000198E188E0E94EC07E9A6FAA640E06E2D4A
:100AE0008F2D0E94D90041E069A58AA50E94880047
:100AF00041E06E2D8F2D0E942A018AA5813041F0A0
:100B000018F0823049F00BC083B18093200107C0F8
:100B100086B18093200103C089B180932001809128
:100B20002101E82FF0E0EE0FFF1FEE5DFE4F118375
:100B3000008388A78F5F80932101CE010E94270543
:100B4000CE010E9430051F8ECE010E947B088BA72C
:100B5000DF91CF911F910F91FF90EF900895CF9368
:100B6000DF93EC010E9430058A8D811129C08BA191
:100B7000882309F48AC089A1882331F0E88DF98D92
:100B8000309711F088A509958DA1811108C025ED38
:100B900036E040E06CEB72E0CE010E94FD0781E0A0
:100BA0008CA38DA1882341F068E572E0CE010E94FC
:100BB000180881E08EA31DA28A8D882309F465C0E0
:100BC0008BA1811162C08AA1882331F0EE89FF894F
:100BD000309711F088A509958EA1811106C0CE012C
:100BE0000E9410089FA78EA705C0CE010E9423086F
:100BF0009FA78EA7CE010E942B08CE010E940B0852
:100C00001CA28EA59FA50B978D34924098F58EA1BE
:100C1000811117C08FA181112FC08F8D882359F0AA
:100C200027EF34E040E064E670E0CE010E94FD076B
:100C300081E08DA303C0CE010E94CA048EA1882347
:100C400009F180911C01882361F081E00E94640019
:100C5000E0911401F0911501309761F088A5099594
:100C600009C081E00E946400EA89FB89309711F095
:100C700088A509958FA181111FA28EA1882329F033
:100C80001EA203C08FA18111F7CFDF91CF910895EC
:100C9000CF9380912101882391F0C0E0EC2FF0E008
:100CA000EE0FFF1FEE5DFE4F80819181009711F0E6
:100CB0000E94AF05CF5F80912101C81778F3CF91D3
:100CC0000895CF93DF93EC0118A21DA21EA28FA15D
:100CD000882389F1CE010E942705CE010E943005AC
:100CE0008A8D811128C08E8D811104C080911601DA
:100CF000882309F125ED36E040E066E470E0CE019E
:100D00000E94FD0780911C01882361F081E00E9410
:100D10006400E0911001F0911101309761F088A515
:100D2000099509C081E00E946400EC89FD89309733
:100D300011F088A509958CA18823A1F1CE010E940C
:100D40002705CE010E9430058A8D81112BC08D8D23
:100D5000811104C080911901882321F11CA281E036
:100D60008FA325ED36E040E062E370E0CE010E9403
:100D7000FD0780911C01882361F081E00E946400DE
:100D8000E0911201F0911301309761F088A5099567
:100D900009C081E00E946400E889F989309711F068
:100DA00088A50995DF91CF910895CF93DF93909116
:100DB00021019923C1F0D82FC0E0EC2FF0E0EE0F15
:100DC000FF1FEE5DFE4F0190F081E02D93A59D1376
:100DD00005C0309719F0CF010E946106CF5F909156
:100DE0002101C91750F3DF91CF9108951F920F92FF
:100DF0000FB60F9211242F933F934F935F936F93EE
:100E00007F938F939F93AF93BF93EF93FF9383B1A0
:100E1000EDE1F1E0808386B1818389B182830E9414
:100E2000610080E00E9464000E944806FF91EF91FB
:100E3000BF91AF919F918F917F916F915F914F91F2
:100E40003F912F910F900FBE0F901F9018951F92FA
:100E50000F920FB60F9211242F933F934F935F93EE
:100E60006F937F938F939F93AF93BF93EF93FF9372
:100E70000E94610080E00E9464000E944806FF9189
:100E8000EF91BF91AF919F918F917F916F915F9102
:100E90004F913F912F910F900FBE0F901F9018957B
:100EA0001F920F920FB60F9211242F933F934F93DF
:100EB0005F936F937F938F939F93AF93BF93EF93C2
:100EC000FF9383B1EDE1F1E0808386B1818389B145
:100ED00082830E94610080E00E9464000E944806B4
:100EE000FF91EF91BF91AF919F918F917F916F9102
:100EF0005F914F913F912F910F900FBE0F901F90D8
:100F000018951F920F920FB60F9211242F933F93B3
:100F10004F935F936F937F938F939F93AF93BF9301
:100F2000EF93FF9383B1EDE1F1E0808386B181839C
:100F300089B182830E94610080E00E9464000E9467
:100F40004806FF91EF91BF91AF919F918F917F9153
:100F50006F915F914F913F912F910F900FBE0F9026
:100F60001F9018951F920F920FB60F9211242F9376
:100F70003F934F935F936F937F938F939F93AF9321
:100F8000BF93EF93FF9383B1EDE1F1E0808386B1EE
:100F9000818389B182830E94610080E00E946400A5
:100FA0000E944806FF91EF91BF91AF919F918F9161
:100FB0007F916F915F914F913F912F910F900FBE55
:100FC0000F901F90189560E47FE181E00E94790006
:100FD00081E080932E010895DC0190912E01E92F8C
:100FE000F0E0EE0FFF1FE95CFE4FB183A083159682
:100FF0009C939F5F90932E010895FC017183608301
:10100000738362833587248781E08387448380E00C
:101010000E9464000895FC011386118210820895D5
:10102000FC018281938120813181821B930B089581
:10103000FC017783668381E082877187608780E027
:101040000E9464000895FC01808591852681378186
:10105000821B930B0895FC01178216821286089555
:10106000CF93DF93EC018B858823E1F08881998110
:10107000009729F0019799838883892B99F48C81B3
:10108000813029F48A819B819983888305C08111ED
:1010900003C01B8619821882EC85FD85309711F0FC
:1010A0008D8109958A85882351F08E819F810097D3
:1010B00029F001979F838E83892B09F41A86DF918B
:1010C000CF910895CF9380912E01882391F0C0E0B5
:1010D000EC2FF0E0EE0FFF1FE95CFE4F8081918165
:1010E000009711F00E943008CF5F80912E01C81741
:1010F00078F3CF910895FC01858108951F920F9296
:101100000FB60F9211242F933F934F935F936F93DA
:101110007F938F939F93AF93BF93EF93FF930E941F
:10112000690120912F01309130014091310150919E
:1011300032016091330170913401809135019091B9
:101140003601A1E00E94550A20932F01309330010F
:101150004093310150933201609333017093340115
:1011600080933501909336010E946208FF91EF91C0
:10117000BF91AF919F918F917F916F915F914F91AF
:101180003F912F910F900FBE0F901F90189591E0F7
:101190009093B0028093B10280E00E9464000895B1
:1011A00081E08093AF025A980E946400089568EE2F
:1011B00073E082E00E9479000E946A0041E062E0F0
:1011C00082E00E94D9000895CF93DF93CDB7DEB7B8
:1011D00029970FB6F894DEBF0FBECDBF0E94D70887
:1011E0002FEF84E39CE0215080409040E1F700C065
:1011F00000008DE690E00E94AB0178941092AF025F
:1012000020E041E061E0CE0101960E942F0401EC54
:101210001AEB2AEB3AEB4AEE50E060E070E0CE01C8
:1012200001960E947C04E12C2AEB3AEB4AEE50E056
:1012300060E070E0CE0101960E9496040E94E307F0
:1012400081EA92E00E94EC0783E992E00E94EC07B9
:1012500020ED38E040E064E670E081EA92E00E9430
:10126000FD070E94B70423E632E040E060E0C901D8
:101270000E94540523E332E046E060E0C9010E9489
:10128000540523E032E041E060E0C9010E945405CA
:1012900023ED31E047E060E0C9010E94540523EAF4
:1012A00031E046E062E0C9010E94540523E731E0E5
:1012B00047E062E0C9010E94540567EC78E083E6EC
:1012C00092E00E94C00481E00E94180588E690E048
:1012D0000E94AB0181E00E946400CE0101960E9451
:1012E0003502882321F0CE0101960E94A903CE0188
:1012F00001960E942702882321F0CE0101960E94C8
:10130000B204CE0101960E942E02882321F0CE0164
:1013100001960E948F038091B002882309F467C070
:101320001092B0028091B102843040F46091B10219
:101330006F5FCE0101960E9441040FC08091B102FF
:10134000853031F461EDCE0101960E94410405C063
:1013500060EDCE0101960E9441041092AF0220ED93
:1013600038E040E062E370E083E992E00E94FD072C
:10137000CE0101960E942E02803209F457C080915E
:10138000AF02811153C0F4CF5A9ACE0101960E9448
:101390008F0320ED38E040E062E370E081EA92E004
:1013A0000E94FD0783E992E00E940B0802C01092A0
:1013B000AF02CE0101960E943502882321F0CE01B2
:1013C00001960E94A903CE0101960E94270288235C
:1013D00021F0CE0101960E94B204CE0101960E9436
:1013E0002E02882321F0CE0101960E948F030E94D5
:1013F0006700882309F48FCF83B7817F846083BF20
:1014000083B7816083BF78940E945D00409883B762
:10141000816083BF889583B78E7F83BF409A8FE3B7
:101420009CE90197F1F700C0000075CFCE0101964D
:101430000E942E02803209F0BACFA6CF0F93083057
:1014400090F0982F872F762F652F542F432F322F10
:1014500022270850F4CF220F331F441F551F661F49
:10146000771F881F991F0A95B2F70F91089597FB70
:1014700010F8169400080F93083098F00850232FA6
:10148000342F452F562F672F782F892F902DF4CF8B
:1014900005949795879577956795579547953795CF
:1014A00027950A95AAF70F9108950024A7FD0094A7
:1014B0002A0F301D401D501D601D701D801D901D88
:0614C0000895F894FFCF2F
:00000001FF
